{
  "contractName": "Election",
  "abi": [
    {
      "constant": true,
      "inputs": [
        {
          "name": "",
          "type": "uint256"
        }
      ],
      "name": "candidates",
      "outputs": [
        {
          "name": "candidate_id",
          "type": "uint256"
        },
        {
          "name": "candidate_name",
          "type": "string"
        },
        {
          "name": "candidate_no_of_votes",
          "type": "uint256"
        }
      ],
      "payable": false,
      "stateMutability": "view",
      "type": "function"
    },
    {
      "constant": true,
      "inputs": [
        {
          "name": "",
          "type": "address"
        }
      ],
      "name": "voters",
      "outputs": [
        {
          "name": "",
          "type": "bool"
        }
      ],
      "payable": false,
      "stateMutability": "view",
      "type": "function"
    },
    {
      "constant": true,
      "inputs": [],
      "name": "no_of_candidates",
      "outputs": [
        {
          "name": "",
          "type": "uint256"
        }
      ],
      "payable": false,
      "stateMutability": "view",
      "type": "function"
    },
    {
      "constant": true,
      "inputs": [
        {
          "name": "",
          "type": "address"
        }
      ],
      "name": "voter_candidate",
      "outputs": [
        {
          "name": "",
          "type": "uint256"
        }
      ],
      "payable": false,
      "stateMutability": "view",
      "type": "function"
    },
    {
      "inputs": [],
      "payable": false,
      "stateMutability": "nonpayable",
      "type": "constructor"
    },
    {
      "constant": false,
      "inputs": [
        {
          "name": "_name",
          "type": "string"
        }
      ],
      "name": "addCandidate",
      "outputs": [],
      "payable": false,
      "stateMutability": "nonpayable",
      "type": "function"
    },
    {
      "constant": false,
      "inputs": [
        {
          "name": "_candidateId",
          "type": "uint256"
        }
      ],
      "name": "vote",
      "outputs": [],
      "payable": false,
      "stateMutability": "nonpayable",
      "type": "function"
    },
    {
      "constant": true,
      "inputs": [
        {
          "name": "voter_address",
          "type": "address"
        }
      ],
      "name": "returnCandidate",
      "outputs": [
        {
          "name": "",
          "type": "string"
        }
      ],
      "payable": false,
      "stateMutability": "view",
      "type": "function"
    },
    {
      "constant": true,
      "inputs": [],
      "name": "returnTotalVoteCount",
      "outputs": [
        {
          "name": "",
          "type": "uint256"
        }
      ],
      "payable": false,
      "stateMutability": "view",
      "type": "function"
    },
    {
      "constant": true,
      "inputs": [
        {
          "name": "user",
          "type": "address"
        }
      ],
      "name": "isOwner",
      "outputs": [
        {
          "name": "",
          "type": "bool"
        }
      ],
      "payable": false,
      "stateMutability": "view",
      "type": "function"
    }
  ],
  "bytecode": "0x60806040526000600255600060065534801561001a57600080fd5b5033600160006101000a81548173ffffffffffffffffffffffffffffffffffffffff021916908373ffffffffffffffffffffffffffffffffffffffff1602179055506100a96040805190810160405280600581526020017f4472616b65000000000000000000000000000000000000000000000000000000815250610195640100000000026401000000009004565b6100f66040805190810160405280600581526020017f486f626273000000000000000000000000000000000000000000000000000000815250610195640100000000026401000000009004565b6101436040805190810160405280600481526020017f4a6f736800000000000000000000000000000000000000000000000000000000815250610195640100000000026401000000009004565b6101906040805190810160405280600481526020017f5368617700000000000000000000000000000000000000000000000000000000815250610195640100000000026401000000009004565b6102b7565b60066000815480929190600101919050555060606040519081016040528060065481526020018281526020016000815250600460006006548152602001908152602001600020600082015181600001556020820151816001019080519060200190610201929190610212565b506040820151816002015590505050565b828054600181600116156101000203166002900490600052602060002090601f016020900481019282601f1061025357805160ff1916838001178555610281565b82800160010185558215610281579182015b82811115610280578251825591602001919060010190610265565b5b50905061028e9190610292565b5090565b6102b491905b808211156102b0576000816000905550600101610298565b5090565b90565b61090e806102c66000396000f300608060405260043610610099576000357c0100000000000000000000000000000000000000000000000000000000900463ffffffff1680630121b93f1461009e5780632f54bf6e146100cb5780633477ee2e14610126578063462e91ec146101da5780635be1812614610243578063a3ec138d146102ff578063aa1ea3af1461035a578063b94e3cd414610385578063e25e3d9f146103dc575b600080fd5b3480156100aa57600080fd5b506100c960048036038101908080359060200190929190505050610407565b005b3480156100d757600080fd5b5061010c600480360381019080803573ffffffffffffffffffffffffffffffffffffffff169060200190929190505050610554565b604051808215151515815260200191505060405180910390f35b34801561013257600080fd5b50610151600480360381019080803590602001909291905050506105bf565b6040518084815260200180602001838152602001828103825284818151815260200191508051906020019080838360005b8381101561019d578082015181840152602081019050610182565b50505050905090810190601f1680156101ca5780820380516001836020036101000a031916815260200191505b5094505050505060405180910390f35b3480156101e657600080fd5b50610241600480360381019080803590602001908201803590602001908080601f0160208091040260200160405190810160405280939291908181526020018383808284378201915050505050509192919290505050610681565b005b34801561024f57600080fd5b50610284600480360381019080803573ffffffffffffffffffffffffffffffffffffffff1690602001909291905050506106fe565b6040518080602001828103825283818151815260200191508051906020019080838360005b838110156102c45780820151818401526020810190506102a9565b50505050905090810190601f1680156102f15780820380516001836020036101000a031916815260200191505b509250505060405180910390f35b34801561030b57600080fd5b50610340600480360381019080803573ffffffffffffffffffffffffffffffffffffffff1690602001909291905050506107f5565b604051808215151515815260200191505060405180910390f35b34801561036657600080fd5b5061036f610815565b6040518082815260200191505060405180910390f35b34801561039157600080fd5b506103c6600480360381019080803573ffffffffffffffffffffffffffffffffffffffff16906020019092919050505061081b565b6040518082815260200191505060405180910390f35b3480156103e857600080fd5b506103f1610833565b6040518082815260200191505060405180910390f35b600360003373ffffffffffffffffffffffffffffffffffffffff1673ffffffffffffffffffffffffffffffffffffffff16815260200190815260200160002060009054906101000a900460ff1615151561046057600080fd5b60008111801561047257506006548111155b151561047d57600080fd5b6001600360003373ffffffffffffffffffffffffffffffffffffffff1673ffffffffffffffffffffffffffffffffffffffff16815260200190815260200160002060006101000a81548160ff02191690831515021790555080600560003373ffffffffffffffffffffffffffffffffffffffff1673ffffffffffffffffffffffffffffffffffffffff16815260200190815260200160002081905550600460008281526020019081526020016000206002016000815480929190600101919050555060026000815480929190600101919050555050565b6000600160009054906101000a900473ffffffffffffffffffffffffffffffffffffffff1673ffffffffffffffffffffffffffffffffffffffff168273ffffffffffffffffffffffffffffffffffffffff1614156105b557600190506105ba565b600090505b919050565b6004602052806000526040600020600091509050806000015490806001018054600181600116156101000203166002900480601f0160208091040260200160405190810160405280929190818152602001828054600181600116156101000203166002900480156106715780601f1061064657610100808354040283529160200191610671565b820191906000526020600020905b81548152906001019060200180831161065457829003601f168201915b5050505050908060020154905083565b600660008154809291906001019190505550606060405190810160405280600654815260200182815260200160008152506004600060065481526020019081526020016000206000820151816000015560208201518160010190805190602001906106ed92919061083d565b506040820151816002015590505050565b606060046000600560008573ffffffffffffffffffffffffffffffffffffffff1673ffffffffffffffffffffffffffffffffffffffff1681526020019081526020016000205481526020019081526020016000206001018054600181600116156101000203166002900480601f0160208091040260200160405190810160405280929190818152602001828054600181600116156101000203166002900480156107e95780601f106107be576101008083540402835291602001916107e9565b820191906000526020600020905b8154815290600101906020018083116107cc57829003601f168201915b50505050509050919050565b60036020528060005260406000206000915054906101000a900460ff1681565b60065481565b60056020528060005260406000206000915090505481565b6000600254905090565b828054600181600116156101000203166002900490600052602060002090601f016020900481019282601f1061087e57805160ff19168380011785556108ac565b828001600101855582156108ac579182015b828111156108ab578251825591602001919060010190610890565b5b5090506108b991906108bd565b5090565b6108df91905b808211156108db5760008160009055506001016108c3565b5090565b905600a165627a7a72305820ad465b07edef53e5257a9bd6fd519587a5e11185028a5794c7362c6542fb02450029",
  "source": "pragma solidity >= 0.4.11;\n\ncontract Election {\n    \n    address deployed;\n    address owner;\n    uint totalVoteCount = 0;\n    // Schema of Candidate class\n    struct Candidate {\n        uint candidate_id;\n        string candidate_name;\n        uint candidate_no_of_votes;\n    }\n\n    mapping(address => bool) public voters;           //map to keep track of voters who already voted\n    mapping(uint => Candidate) public candidates;     //to access candidates using index\n    mapping(address => uint) public voter_candidate;  //to map voter to voted candidate\n\n    uint public no_of_candidates = 0;\n\n    constructor() public {\n        owner = msg.sender;\n        addCandidate(\"Drake\");\n        addCandidate(\"Hobbs\");\n        addCandidate(\"Josh\");\n        addCandidate(\"Shaw\");\n    }\n\n    function addCandidate (string memory _name) public {\n        no_of_candidates ++;\n        candidates[no_of_candidates] = Candidate(no_of_candidates, _name, 0);\n    }\n\n    function vote (uint _candidateId) public {\n        \n        require(!voters[msg.sender]);\n\n        \n        require(_candidateId > 0 && _candidateId <= no_of_candidates);\n\n       \n        voters[msg.sender] = true;\n        voter_candidate[msg.sender] = _candidateId;\n\n\n        candidates[_candidateId].candidate_no_of_votes ++;\n        totalVoteCount++;\n\n    }\n\n    function returnCandidate (address voter_address) public view returns (string memory){\n        return candidates[voter_candidate[voter_address]].candidate_name;\n    }\n\n    function returnTotalVoteCount () public view returns (uint) {\n        return totalVoteCount;\n    }\n\n    function isOwner (address user) public view returns (bool)\n    {\n        if(user==owner)\n        return true;\n        else\n        return false;\n    }\n}\n",
  "sourcePath": "D:\\College material\\3rd year\\3-1\\BCT\\Project\\dapp_vote-dapp-master\\BCT-Final-Project\\contracts\\Election.sol",
  "compiler": {
    "name": "solc",
    "version": "0.4.25+commit.59dbf8f1.Emscripten.clang"
  },
  "schemaVersion": "3.4.3",
  "updatedAt": "2021-12-05T13:07:47.156Z",
  "networkType": "ethereum",
  "devdoc": {
    "methods": {}
  },
  "userdoc": {
    "methods": {}
  }
}